{
  "_format": "hh-sol-artifact-1",
  "contractName": "AntiPhishingSwf2023",
  "sourceName": "contracts/AntiPhishingSwf2023.sol",
  "abi": [
    {
      "inputs": [],
      "stateMutability": "nonpayable",
      "type": "constructor"
    },
    {
      "anonymous": false,
      "inputs": [
        {
          "indexed": false,
          "internalType": "bytes32",
          "name": "hash",
          "type": "bytes32"
        },
        {
          "indexed": false,
          "internalType": "enum AntiPhishingSwf2023.BlackListReason",
          "name": "reason",
          "type": "uint8"
        },
        {
          "indexed": false,
          "internalType": "uint256",
          "name": "identityType",
          "type": "uint256"
        }
      ],
      "name": "BlacklistIdentityAdded",
      "type": "event"
    },
    {
      "anonymous": false,
      "inputs": [
        {
          "indexed": false,
          "internalType": "bytes32",
          "name": "hash",
          "type": "bytes32"
        }
      ],
      "name": "BlacklistIdentityDeleted",
      "type": "event"
    },
    {
      "anonymous": false,
      "inputs": [
        {
          "indexed": true,
          "internalType": "bytes32",
          "name": "role",
          "type": "bytes32"
        },
        {
          "indexed": true,
          "internalType": "bytes32",
          "name": "previousAdminRole",
          "type": "bytes32"
        },
        {
          "indexed": true,
          "internalType": "bytes32",
          "name": "newAdminRole",
          "type": "bytes32"
        }
      ],
      "name": "RoleAdminChanged",
      "type": "event"
    },
    {
      "anonymous": false,
      "inputs": [
        {
          "indexed": true,
          "internalType": "bytes32",
          "name": "role",
          "type": "bytes32"
        },
        {
          "indexed": true,
          "internalType": "address",
          "name": "account",
          "type": "address"
        },
        {
          "indexed": true,
          "internalType": "address",
          "name": "sender",
          "type": "address"
        }
      ],
      "name": "RoleGranted",
      "type": "event"
    },
    {
      "anonymous": false,
      "inputs": [
        {
          "indexed": true,
          "internalType": "bytes32",
          "name": "role",
          "type": "bytes32"
        },
        {
          "indexed": true,
          "internalType": "address",
          "name": "account",
          "type": "address"
        },
        {
          "indexed": true,
          "internalType": "address",
          "name": "sender",
          "type": "address"
        }
      ],
      "name": "RoleRevoked",
      "type": "event"
    },
    {
      "anonymous": false,
      "inputs": [
        {
          "indexed": false,
          "internalType": "bytes32",
          "name": "hash",
          "type": "bytes32"
        },
        {
          "indexed": false,
          "internalType": "string",
          "name": "did",
          "type": "string"
        }
      ],
      "name": "WhitelistIdentityAdded",
      "type": "event"
    },
    {
      "anonymous": false,
      "inputs": [
        {
          "indexed": false,
          "internalType": "bytes32",
          "name": "hash",
          "type": "bytes32"
        }
      ],
      "name": "WhitelistIdentityDeleted",
      "type": "event"
    },
    {
      "inputs": [],
      "name": "BLACKLIST_OPERATOR_ROLE",
      "outputs": [
        {
          "internalType": "bytes32",
          "name": "",
          "type": "bytes32"
        }
      ],
      "stateMutability": "view",
      "type": "function"
    },
    {
      "inputs": [],
      "name": "DEFAULT_ADMIN_ROLE",
      "outputs": [
        {
          "internalType": "bytes32",
          "name": "",
          "type": "bytes32"
        }
      ],
      "stateMutability": "view",
      "type": "function"
    },
    {
      "inputs": [],
      "name": "OWNER_ROLE",
      "outputs": [
        {
          "internalType": "bytes32",
          "name": "",
          "type": "bytes32"
        }
      ],
      "stateMutability": "view",
      "type": "function"
    },
    {
      "inputs": [],
      "name": "WHITELIST_OPERATOR_ROLE",
      "outputs": [
        {
          "internalType": "bytes32",
          "name": "",
          "type": "bytes32"
        }
      ],
      "stateMutability": "view",
      "type": "function"
    },
    {
      "inputs": [
        {
          "internalType": "string",
          "name": "_id",
          "type": "string"
        },
        {
          "internalType": "enum AntiPhishingSwf2023.BlackListReason",
          "name": "_reason",
          "type": "uint8"
        },
        {
          "internalType": "uint256",
          "name": "_identityType",
          "type": "uint256"
        }
      ],
      "name": "addToBlackList",
      "outputs": [],
      "stateMutability": "nonpayable",
      "type": "function"
    },
    {
      "inputs": [
        {
          "internalType": "string",
          "name": "_did",
          "type": "string"
        }
      ],
      "name": "addToWhiteList",
      "outputs": [],
      "stateMutability": "nonpayable",
      "type": "function"
    },
    {
      "inputs": [],
      "name": "blackListCount",
      "outputs": [
        {
          "internalType": "uint256",
          "name": "",
          "type": "uint256"
        }
      ],
      "stateMutability": "view",
      "type": "function"
    },
    {
      "inputs": [
        {
          "internalType": "bytes32",
          "name": "role",
          "type": "bytes32"
        }
      ],
      "name": "getRoleAdmin",
      "outputs": [
        {
          "internalType": "bytes32",
          "name": "",
          "type": "bytes32"
        }
      ],
      "stateMutability": "view",
      "type": "function"
    },
    {
      "inputs": [
        {
          "internalType": "bytes32",
          "name": "role",
          "type": "bytes32"
        },
        {
          "internalType": "address",
          "name": "account",
          "type": "address"
        }
      ],
      "name": "grantRole",
      "outputs": [],
      "stateMutability": "nonpayable",
      "type": "function"
    },
    {
      "inputs": [
        {
          "internalType": "bytes32",
          "name": "role",
          "type": "bytes32"
        },
        {
          "internalType": "address",
          "name": "account",
          "type": "address"
        }
      ],
      "name": "hasRole",
      "outputs": [
        {
          "internalType": "bool",
          "name": "",
          "type": "bool"
        }
      ],
      "stateMutability": "view",
      "type": "function"
    },
    {
      "inputs": [
        {
          "internalType": "string",
          "name": "_id",
          "type": "string"
        }
      ],
      "name": "isBlackListed",
      "outputs": [
        {
          "internalType": "bool",
          "name": "",
          "type": "bool"
        },
        {
          "internalType": "enum AntiPhishingSwf2023.BlackListReason",
          "name": "",
          "type": "uint8"
        },
        {
          "internalType": "uint256",
          "name": "",
          "type": "uint256"
        }
      ],
      "stateMutability": "view",
      "type": "function"
    },
    {
      "inputs": [
        {
          "internalType": "string",
          "name": "_did",
          "type": "string"
        }
      ],
      "name": "isWhiteListed",
      "outputs": [
        {
          "internalType": "bool",
          "name": "",
          "type": "bool"
        }
      ],
      "stateMutability": "view",
      "type": "function"
    },
    {
      "inputs": [
        {
          "internalType": "string",
          "name": "_id",
          "type": "string"
        }
      ],
      "name": "removeFromBlackList",
      "outputs": [],
      "stateMutability": "nonpayable",
      "type": "function"
    },
    {
      "inputs": [
        {
          "internalType": "string",
          "name": "_did",
          "type": "string"
        }
      ],
      "name": "removeFromWhiteList",
      "outputs": [],
      "stateMutability": "nonpayable",
      "type": "function"
    },
    {
      "inputs": [
        {
          "internalType": "bytes32",
          "name": "role",
          "type": "bytes32"
        },
        {
          "internalType": "address",
          "name": "account",
          "type": "address"
        }
      ],
      "name": "renounceRole",
      "outputs": [],
      "stateMutability": "nonpayable",
      "type": "function"
    },
    {
      "inputs": [
        {
          "internalType": "bytes32",
          "name": "role",
          "type": "bytes32"
        },
        {
          "internalType": "address",
          "name": "account",
          "type": "address"
        }
      ],
      "name": "revokeRole",
      "outputs": [],
      "stateMutability": "nonpayable",
      "type": "function"
    },
    {
      "inputs": [
        {
          "internalType": "bytes4",
          "name": "interfaceId",
          "type": "bytes4"
        }
      ],
      "name": "supportsInterface",
      "outputs": [
        {
          "internalType": "bool",
          "name": "",
          "type": "bool"
        }
      ],
      "stateMutability": "view",
      "type": "function"
    },
    {
      "inputs": [],
      "name": "whiteListCount",
      "outputs": [
        {
          "internalType": "uint256",
          "name": "",
          "type": "uint256"
        }
      ],
      "stateMutability": "view",
      "type": "function"
    }
  ],
  "bytecode": "0x608060405234801561001057600080fd5b5061003b7fb19546dff01e856fb3f010c267a7b1c60363cf8a4664e21cc89c26224620214e33610040565b6100ec565b61004a828261004e565b5050565b6000828152602081815260408083206001600160a01b038516845290915290205460ff1661004a576000828152602081815260408083206001600160a01b03851684529091529020805460ff191660011790556100a83390565b6001600160a01b0316816001600160a01b0316837f2f8788117e7eff1d82e926ec794901d17c78024a50270940304540a733656f0d60405160405180910390a45050565b6113eb806100fb6000396000f3fe608060405234801561001057600080fd5b50600436106101165760003560e01c8063899fffba116100a2578063cb5e207a11610071578063cb5e207a14610269578063d547741f1461027c578063df6d3dfe1461028f578063e58378bb14610298578063fd6a5a80146102ad57600080fd5b8063899fffba1461021957806391d148541461023b578063a217fddf1461024e578063c38091dd1461025657600080fd5b806336568abe116100e957806336568abe1461019c578063378f2a09146101af578063399dccb6146101c25780635300b4ba146101cb5780635d7ab6b5146101f257600080fd5b806301ffc9a71461011b5780631ad569a914610143578063248a9ca3146101585780632f2ff15d14610189575b600080fd5b61012e610129366004610e4b565b6102c0565b60405190151581526020015b60405180910390f35b610156610151366004610f18565b6102f7565b005b61017b610166366004610f55565b60009081526020819052604090206001015490565b60405190815260200161013a565b610156610197366004610f6e565b61043b565b6101566101aa366004610f6e565b610465565b6101566101bd366004610f18565b6104e3565b61017b60015481565b61017b7f2fdc6683bc8d03effec5b41d3834f28bd219e06ca0a6a26fc737e44b1c7889ff81565b61017b7f08ea5e21c2a1542ddbce1d28b3ff1b50e7aabae96e99e6f6fad89687c6a975f281565b61022c610227366004610f18565b610617565b60405161013a93929190610fe2565b61012e610249366004610f6e565b610672565b61017b600081565b61012e610264366004610f18565b61069b565b610156610277366004610f18565b6106dc565b61015661028a366004610f6e565b6108b7565b61017b60025481565b61017b60008051602061139683398151915281565b6101566102bb366004611006565b6108dc565b60006001600160e01b03198216637965db0b60e01b14806102f157506301ffc9a760e01b6001600160e01b03198316145b92915050565b61030f60008051602061139683398151915233610672565b6103345760405162461bcd60e51b815260040161032b90611064565b60405180910390fd5b60008160405160200161034791906110ca565b60408051601f1981840301815291815281516020928301206000818152600490935291205490915081146103cd5760405162461bcd60e51b815260206004820152602760248201527f5468697320494420646f6573206e6f7420657869737420696e2074686520626c6044820152661858dadb1a5cdd60ca1b606482015260840161032b565b600081815260046020526040812081815560018101805460ff1916905560029081018290558054916103fe836110fc565b90915550506040518181527f0ac45cb3b26a016702069ced564995d625d85193a4c3b9adfb6c6b28b7a73986906020015b60405180910390a15050565b60008281526020819052604090206001015461045681610af9565b6104608383610b06565b505050565b6001600160a01b03811633146104d55760405162461bcd60e51b815260206004820152602f60248201527f416363657373436f6e74726f6c3a2063616e206f6e6c792072656e6f756e636560448201526e103937b632b9903337b91039b2b63360891b606482015260840161032b565b6104df8282610b8a565b5050565b6104fb60008051602061139683398151915233610672565b6105175760405162461bcd60e51b815260040161032b90611064565b60008160405160200161052a91906110ca565b60408051601f1981840301815291815281516020928301206000818152600390935291205490915081146105b15760405162461bcd60e51b815260206004820152602860248201527f546869732044494420646f6573206e6f7420657869737420696e2074686520776044820152671a1a5d195b1a5cdd60c21b606482015260840161032b565b6000818152600360205260408120818155906105d06001830182610dfd565b5050600180549060006105e2836110fc565b90915550506040518181527fe516ae4a5a956126bde30f2bebd7f989841ff2de6b8a29581e7014202509b5799060200161042f565b6000806000808460405160200161062e91906110ca565b60408051601f198184030181529181528151602092830120600081815260049093529120805460018201546002909201549214955060ff1693509150509193909250565b6000918252602082815260408084206001600160a01b0393909316845291905290205460ff1690565b600080826040516020016106af91906110ca565b60408051601f19818403018152918152815160209283012060008181526003909352912054149392505050565b6107067f08ea5e21c2a1542ddbce1d28b3ff1b50e7aabae96e99e6f6fad89687c6a975f233610672565b80610724575061072460008051602061139683398151915233610672565b6107915760405162461bcd60e51b815260206004820152603860248201527f4f6e6c792077686974656c697374206f70657261746f72206f72206f776e65726044820152771031b0b7103832b93337b936903a3434b99030b1ba34b7b760411b606482015260840161032b565b6000816040516020016107a491906110ca565b60408051601f198184030181529181528151602092830120600081815260039093529120549091508190036108275760405162461bcd60e51b8152602060048201526024808201527f546869732044494420697320616c726561647920696e207468652077686974656044820152631b1a5cdd60e21b606482015260840161032b565b604080518082018252828152602080820185815260008581526003909252929020815181559151909182916001820190610861908261119b565b505060018054915060006108748361125b565b91905055507f0c4efb69c89c86125d23521249257e822762f1533e3f2881f2c94a616f1c282c82846040516108aa9291906112a0565b60405180910390a1505050565b6000828152602081905260409020600101546108d281610af9565b6104608383610b8a565b6109067f2fdc6683bc8d03effec5b41d3834f28bd219e06ca0a6a26fc737e44b1c7889ff33610672565b80610924575061092460008051602061139683398151915233610672565b6109915760405162461bcd60e51b815260206004820152603860248201527f4f6e6c7920626c61636b6c697374206f70657261746f72206f72206f776e65726044820152771031b0b7103832b93337b936903a3434b99030b1ba34b7b760411b606482015260840161032b565b6000836040516020016109a491906110ca565b60408051601f19818403018152918152815160209283012060008181526004909352912054909150819003610a275760405162461bcd60e51b815260206004820152602360248201527f5468697320494420697320616c726561647920696e2074686520626c61636b6c6044820152621a5cdd60ea1b606482015260840161032b565b60006040518060600160405280838152602001856009811115610a4c57610a4c610faa565b81526020908101859052600084815260048252604090208251815590820151600180830180549495508594909160ff1990911690836009811115610a9257610a92610faa565b0217905550604091909101516002918201558054906000610ab28361125b565b91905055507fafee226c10ad985a643e7c5623ed041e6f2216e749e46f2daa7d1f723ad7ed2a828585604051610aea939291906112b9565b60405180910390a15050505050565b610b038133610bef565b50565b610b108282610672565b6104df576000828152602081815260408083206001600160a01b03851684529091529020805460ff19166001179055610b463390565b6001600160a01b0316816001600160a01b0316837f2f8788117e7eff1d82e926ec794901d17c78024a50270940304540a733656f0d60405160405180910390a45050565b610b948282610672565b156104df576000828152602081815260408083206001600160a01b0385168085529252808320805460ff1916905551339285917ff6391f5c32d9c69d2a47ea670b442974b53935d1edc7fd64eb21e047a839171b9190a45050565b610bf98282610672565b6104df57610c0681610c48565b610c11836020610c5a565b604051602001610c229291906112cd565b60408051601f198184030181529082905262461bcd60e51b825261032b91600401611342565b60606102f16001600160a01b03831660145b60606000610c69836002611355565b610c7490600261136c565b67ffffffffffffffff811115610c8c57610c8c610e75565b6040519080825280601f01601f191660200182016040528015610cb6576020820181803683370190505b509050600360fc1b81600081518110610cd157610cd161137f565b60200101906001600160f81b031916908160001a905350600f60fb1b81600181518110610d0057610d0061137f565b60200101906001600160f81b031916908160001a9053506000610d24846002611355565b610d2f90600161136c565b90505b6001811115610da7576f181899199a1a9b1b9c1cb0b131b232b360811b85600f1660108110610d6357610d6361137f565b1a60f81b828281518110610d7957610d7961137f565b60200101906001600160f81b031916908160001a90535060049490941c93610da0816110fc565b9050610d32565b508315610df65760405162461bcd60e51b815260206004820181905260248201527f537472696e67733a20686578206c656e67746820696e73756666696369656e74604482015260640161032b565b9392505050565b508054610e0990611113565b6000825580601f10610e19575050565b601f016020900490600052602060002090810190610b0391905b80821115610e475760008155600101610e33565b5090565b600060208284031215610e5d57600080fd5b81356001600160e01b031981168114610df657600080fd5b634e487b7160e01b600052604160045260246000fd5b600082601f830112610e9c57600080fd5b813567ffffffffffffffff80821115610eb757610eb7610e75565b604051601f8301601f19908116603f01168101908282118183101715610edf57610edf610e75565b81604052838152866020858801011115610ef857600080fd5b836020870160208301376000602085830101528094505050505092915050565b600060208284031215610f2a57600080fd5b813567ffffffffffffffff811115610f4157600080fd5b610f4d84828501610e8b565b949350505050565b600060208284031215610f6757600080fd5b5035919050565b60008060408385031215610f8157600080fd5b8235915060208301356001600160a01b0381168114610f9f57600080fd5b809150509250929050565b634e487b7160e01b600052602160045260246000fd5b600a8110610fde57634e487b7160e01b600052602160045260246000fd5b9052565b831515815260608101610ff86020830185610fc0565b826040830152949350505050565b60008060006060848603121561101b57600080fd5b833567ffffffffffffffff81111561103257600080fd5b61103e86828701610e8b565b9350506020840135600a811061105357600080fd5b929592945050506040919091013590565b60208082526022908201527f4f6e6c79206f776e65722063616e20706572666f726d2074686973206163746960408201526137b760f11b606082015260800190565b60005b838110156110c15781810151838201526020016110a9565b50506000910152565b600082516110dc8184602087016110a6565b9190910192915050565b634e487b7160e01b600052601160045260246000fd5b60008161110b5761110b6110e6565b506000190190565b600181811c9082168061112757607f821691505b60208210810361114757634e487b7160e01b600052602260045260246000fd5b50919050565b601f82111561046057600081815260208120601f850160051c810160208610156111745750805b601f850160051c820191505b8181101561119357828155600101611180565b505050505050565b815167ffffffffffffffff8111156111b5576111b5610e75565b6111c9816111c38454611113565b8461114d565b602080601f8311600181146111fe57600084156111e65750858301515b600019600386901b1c1916600185901b178555611193565b600085815260208120601f198616915b8281101561122d5788860151825594840194600190910190840161120e565b508582101561124b5787850151600019600388901b60f8161c191681555b5050505050600190811b01905550565b60006001820161126d5761126d6110e6565b5060010190565b6000815180845261128c8160208601602086016110a6565b601f01601f19169290920160200192915050565b828152604060208201526000610f4d6040830184611274565b83815260608101610ff86020830185610fc0565b7f416363657373436f6e74726f6c3a206163636f756e74200000000000000000008152600083516113058160178501602088016110a6565b7001034b99036b4b9b9b4b733903937b6329607d1b60179184019182015283516113368160288401602088016110a6565b01602801949350505050565b602081526000610df66020830184611274565b80820281158282048414176102f1576102f16110e6565b808201808211156102f1576102f16110e6565b634e487b7160e01b600052603260045260246000fdfeb19546dff01e856fb3f010c267a7b1c60363cf8a4664e21cc89c26224620214ea2646970667358221220fbb69333f032829266135bcee65abbb09c539db71501f5fae57a3c7912191c4964736f6c63430008130033",
  "linkReferences": {},
  "deployedLinkReferences": {}
}